:0900000002045FC285C2B4223281
:10000B00020008758921759850758A00758C00C29D
:10001B008DD2A9D28CD2AF220203EAA2B3E43378F9
:10002B0009A286E4337803751801A2B3E433B40153
:10003B0016A286E433B4010F751801A286E4336867
:10004B0006A2B3E43378F1A2B3E433B40116A2866B
:10005B00E4337810751804A2B3E4336807A286E47E
:10006B0033B401F0A2B3E4337817A286E433B401BE
:10007B0010751806A286E4336807A2B3E433B40103
:10008B00F0227AB115C296D297C2A1D2A0D2A3C246
:06009B00A2D295C29422DE
:1000A3000202F95D22680D5D0078122D220B406873
:1000B300099F11222D000B0078F902027E120241E2
:1000C3005C800B806808248150072CB0500A020220
:1000D300862CB040030202837C8B5D1178267CB1B1
:1000E3007CA5BE1080680A5D33780DA5BD80057FB1
:1000F300100202706D0080307F017C5B7CB17CA5B7
:10010300AD1280245D337806A5BD80F080E1CA88F6
:100113007D41AD437CB17CA5AD122D1450020B047F
:100123007C5BAD232F01DA88A42D05BE0080400639
:100133000B80780480982F007C437C507C617C7218
:1001430002025ABE24FFFF6806BE04FFFF780302C3
:10015300027E1202415CB00468F57CB8A54868EFE2
:100163007CB870039F1122A5B800030202862E00FB
:100173008150079C8038070202839C8050ED0A510E
:10018300C2E74D5178030202707E5400807E901ABC
:100193006C0080061B9068142F11BF1040049F1041
:1001A3004CAB0330E7EECAA86CAA80E8DA39DA5818
:1001B3007C4ABE5080500A1B8068BC2F1150020B32
:1001C3007002025A7EA020800C7EA01080057EA0C3
:1001D300086C556D333392D5500A6E34FFFF6E248D
:1001E300FFFF0B1CA5EC3340062F11D5F0F6227C44
:1001F300BA247EA2D5137C767C65A5CC92E77C5B82
:10020300227CB5337CB43392D54E50802481400395
:100213009F11227C457C567C676C7724E0500E7ED0
:100223001CFFFF221E341E2450034E60800478F40A
:1002330030D50A6E34FFFF6E24FFFF0B1C222D0006
:1002430092D50E104E10807D422D445002B2D54EF1
:1002530050806C447CB8222C4450120B1C7E40000E
:100263005E507FBE18000078040B806816A2D57C10
:10027300B8137C4B7CB592E77C5B227E1CFFFF228C
:100283009F11227E24FF8020D5026C456D3322CA44
:100293003B7D137E2403E88D327D632E6400307C26
:1002A300CD7E4400647D518D547E24000A8D527DA1
:1002B300342E3400307CD77D518D528D527D742E77
:1002C3007400307CEF7D318D327D322E3400307CF2
:1002D300F77E3480061205817CBC1205F87CBD12C2
:1002E30005F87CBE1205F87CBF1205F87E34800049
:1002F300120581DA3B22CA7BCA6BCA5BCA4BCA2B83
:10030300CA1BCA0BC0D1C0D0C083C0827E35160BB6
:10031300347A3516BE340FA040056D337A3516E5B1
:100323001404F514BEB0642803751400E515BEB1BA
:100333001438051205BB8003120425D082D083D064
:10034300D0D0D1DA0BDA1BDA2BDA4BDA5BDA6BDAE1
:100353007B3275E900A9D7BA75EA00120595120533
:10036300A812049512052E1205DC1205EB7E351634
:10037300BE34000540081205CC6D337A35167E7500
:1003830012BE74000A400512002680E1BE74000A02
:100393005008BE7400034002800075180780CEC267
:1003A300A9E58C0A2B7E340100AD32E58A0A2B2D98
:1003B300327A3510758C00758A007E2510E412019F
:1003C300CC7E145C297E043FEF1200A66D117E04DF
:1003D30042C81201466D117E04400012014612020A
:1003E300047A3512D2A922CA7BCA6BCA5BCA4BCA2A
:1003F3002BC0D175D108C0D0C083C082C2AC3098A5
:1004030005C2981204FD309904C299C201D2ACD03E
:1004130082D083D0D0D0D1DA2BDA4BDA5BDA6BDA45
:100423007B32E5181BB1681814681A14681B14682A
:100433001D14681E1468202406781E7407020559CB
:10044300740A02056D74328002740D02054574321C
:100453008002740D02008D80000205BB7584017E4D
:1004630044041FE47A49B01B4478F97EF8002075F0
:100473001800C20075100075110075120075130085
:100483007514007515287516007517007519000287
:10049300035553B1FC53B2FC53873F759850438EB9
:1004A30040538EFE53890F438920758BB2758DB2ED
:1004B300C2ABD28ED2ACD2AF7E3400640205170039
:1004C300007EA00D7E702D7E60D67CB6147C6B788A
:1004D300F97CB7147C7B78F27CBA147CAB78EB2282
:1004E300D2930000000000000000000000000000A4
:1004F30000000000000000C29322E599B4AF11E5AB
:100503001904F519BEB005400A75190075C76022B4
:10051300751900227D237E340FA07D131B147D31BA
:1005230078F87D121B147D2178EC22759400759464
:100533000075B40075B30075B20075B200D286D2EF
:10054300B3227AB115D2A1C2A0D296C297D2A3C2C6
:10055300A2C295D294227AB115C2A1D2A0D2A3C2CB
:10056300A2C295D294C296D297227AB115D2A1C2D1
:10057300A0D296C297C2A3D2A2D295C29422800CD3
:100583007E39B0F599D2012001FD0B347E39B0706C
:10059300EF2275960F7595007592F07591007E3474
:1005A300003202051753DDBF43DD2075D39075D2AA
:1005B300E843AF4043DD8022C2A1C2A0C2A3C2A2CE
:1005C300C295C294C296C297221204E330C0FDD2F0
:1005D3008C20C0FDC28C0203A275B21075B10075E8
:1005E300942075930002000375920075910075B411
:1005F3000075B300227AB199D2012001FD22D28580
:03060300D2B4224C
:00000001FF
